:020000040800F2
:1000000070F40020A97B0008F1020008F302000848
:10001000F5020008F7020008F902000800000000DD
:10002000000000000000000000000000FB020008CB
:10003000FD02000800000000FF020008C17B00086C
:10004000C37B0008C37B0008C37B0008C37B000898
:10005000C37B0008C37B0008A7070008C37B000818
:10006000CF070008C37B0008F7070008C37B000820
:10007000C37B0008C37B0008C37B0008C37B000868
:10008000C37B0008C37B0008C37B0008C37B000858
:10009000C37B0008C37B0008C37B0008C37B000848
:1000A000C37B0008C37B0008C37B0008C37B000838
:1000B000C37B000881080008C37B0008C37B0008DD
:1000C000C37B0008C37B0008C37B0008C37B000818
:1000D000C37B000831610008C37B0008C37B0008B4
:1000E000C37B0008C37B0008C37B0008C37B0008F8
:1000F000C37B0008C37B0008C37B0008C37B0008E8
:10010000C37B0008C37B0008C37B0008C37B0008D7
:10011000C37B0008C37B0008C37B0008C37B0008C7
:10012000C37B0008C37B0008C37B0008C37B0008B7
:10013000C37B0008C37B0008C37B0008C37B0008A7
:10014000C37B0008C37B0008C37B0008C37B000897
:10015000C37B0008C37B0008C37B0008C37B000887
:10016000C37B0008C37B0008C37B0008C37B000877
:10017000C37B0008C37B0008C37B0008C37B000867
:10018000C37B0008C37B000800F002F800F06FF8A2
:100190000AA090E8000C82448344AAF10107DA45E2
:1001A00001D100F064F8AFF2090EBAE80F0013F0C5
:1001B000010F18BFFB1A43F001031847A4190500EB
:1001C000C41905000A444FF0000C10F8013B13F06D
:1001D000070408BF10F8014B1D1108BF10F8015BA0
:1001E000641E05D010F8016B641E01F8016BF9D193
:1001F00013F0080F1EBF10F8014BAD1C0C1B09D1EA
:100200006D1E58BF01F801CBFAD505E014F8016B5B
:1002100001F8016B6D1EF9D59142D6D370470000ED
:100220000023002400250026103A28BF78C1FBD8FF
:10023000520728BF30C148BF0B607047662935F0B0
:10024000CD84642933F09E87782933F0D787002046
:1002500070471FB535F0BDFC34F040FC04000020B1
:10026000002135F0A7F9E0601FBD10B510BD34F0D6
:1002700055FD1146FFF7EDFF00F008F834F073FD6F
:1002800003B4FFF7F2FF03BC05F0E9FE4FF4A060F2
:1002900006F074FBA82005F085FE4FF4E13005F070
:1002A000DFFE00F053F900F0E9F800F02DF90AF054
:1002B000A0F930F0E7FB30F039FC33F06BFD05A01E
:1002C00033F042FF00F0B0FA26F07CFA052005F08A
:1002D00099FEF9E70D0A2054686973206973206C50
:1002E00076676C207465737421200D0A000000008D
:1002F0007047FEE7FEE7FEE7FEE77047704770478E
:100300000CB50022544900920192086840F48030F4
:1003100008604FF4A043086800F400300190009892
:10032000401C0090019810B900989842F3D10868D9
:10033000800334D50120019047484030026842F0E4
:10034000805202604548026842F4404202604248DE
:10035000083002680260026842F4004202600268EB
:1003600042F4A0520260031F3D4A1A600A6842F03C
:1003700080720A600A689201FCD53A4940F205721F
:100380000A60016821F003010160016841F0020187
:1003900001600168C1F381010229FAD10CBD01920B
:1003A0000CBD314810B5016841F4700101602A4864
:1003B000016841F001010160274A00210832116003
:1003C00002682A4B1A400260031D294A1A6002681B
:1003D00022F48022026020480C300160FFF790FF79
:1003E00021494FF000608039086010BD70B51A4D8A
:1003F000083528681F4B204910F00C0004D05E100F
:10040000042803D0082803D00B601BE00E6019E01D
:10041000114A121D1068C0F38054106800F03F00AC
:1004200014B1B6FBF0F001E0B3FBF0F01368126812
:10043000C3F388135843C2F30142521C5200B0FB6D
:10044000F2F0086028680C4AC0F30310121D105C1B
:100450000A68C2400A6070BD003802400070004067
:1004600008544007003C024088ED00E0FFFFF6FE24
:10047000103000240024F400000000201CB50121ED
:10048000202006F0F6F84FF48070009001208DF8DF
:10049000040003208DF8050002208DF807000024D9
:1004A0008DF806406946164805F0E0FE1548C0F88C
:1004B000A0421CBD10B5134C0121C4F8A01204F5D4
:1004C000287405F09FFD0020206010BD2DE9F04745
:1004D00000240D46814627464FF00108094E0BE0E7
:1004E000C6F8A082484605F08DFDC6F8A0724846C1
:1004F00005F088FD641CA4B2AC42F1D3BDE8F087DE
:1005000000140240008042421CB50121084606F05A
:10051000B0F80121102006F0ACF8002101208DF880
:10052000041000908DF8070002208DF80500694640
:10053000044805F09BFE1C2000906946024805F027
:1005400095FE1CBD00000240001002401CB50121B8
:10055000102006F08EF80121202006F08AF84FF4D2
:10056000C060012400908DF8044003208DF8050040
:100570008DF8074000208DF806006946604805F0B8
:1005800075FE4FF4C040009069465E4805F06EFE6F
:100590005D48C0F8A442C0F8A8425C48C0F8B44224
:1005A000C0F8B8421CBD584B002101280FD00228CA
:1005B00010D0564A032810D0042805D0C3F8A4123E
:1005C000C3F8A812C2F8B412C2F8B8127047C3F840
:1005D000A4127047C3F8A8127047C2F8B41270474B
:1005E000494B012101280FD0022810D0474A032887
:1005F00010D0042805D0C3F8A412C3F8A812C2F87A
:10060000B412C2F8B8127047C3F8A4127047C3F806
:10061000A8127047C2F8B412704770B50546012998
:1006200018D0022915D10424E0B2FFF7BCFF2846F8
:1006300005F0E8FC641E64B2002CF5DC0424E0B292
:10064000FFF7CEFF284605F0DDFC641E64B2002CE7
:10065000F5DC70BD0124E0B2FFF7A5FF284605F0E8
:10066000D1FC641C64B2052CF5DB0124E0B2FFF779
:10067000B7FF284605F0C6FC641C64B2052CF5DB08
:1006800070BD70B50546012913D0022910D104248C
:10069000E0B2FFF788FF284605F0B4FCE0B2FFF7B0
:1006A0009FFF284605F0AEFC641E64B2002CEFDC10
:1006B00070BD0124E0B2FFF776FF284605F0A2FCEA
:1006C000E0B2FFF78DFF284605F09CFC641C64B285
:1006D000052CEFDB70BD70B500240546012606FA37
:1006E00004F0284204F10100C0B202D0FFF75BFF22
:1006F00001E0FFF775FF641C64B2042CEFDB70BDF2
:1007000000140240001002400080424200004242B9
:10071000FEB5FFF7F9FE0121880305F0D2FF0021A5
:10072000084606F0FFF80221042006F0FBF803213A
:10073000042006F0F7F80421084606F0F3F81D201F
:10074000002601908DF808600C208DF80900012426
:100750008DF80A4001A806F071F806208DF8000017
:1007600002258DF801508DF802508DF8034068463F
:1007700006F009F908208DF800008DF801508DF879
:1007800002508DF80340684606F0FDF80A208DF807
:1007900000008DF801608DF802608DF80340684616
:1007A00006F0F1F8FEBD10B5012006F097F801281B
:1007B0000CD142F2107005F0EBFB19490020C1F892
:1007C000A402BDE81040012006F091B810BD10B59C
:1007D000042006F083F801280CD144F6206005F0CF
:1007E000D7FB0F490020C1F8A802BDE81040042043
:1007F00006F07DB810BD10B5102006F06FF8012886
:100800000CD144F6206005F0C3FB06490020C1F876
:10081000B802BDE81040102006F069B810BD000015
:1008200000804242000042421FB50121022005F033
:100830003EFF1D208DF80C0000248DF80D408DF832
:100840000E4001208DF80F0003A806F09CF842F23C
:10085000CF00ADF80000ADF80840ADF80240092027
:10086000104C01906946204606F06EF901221146AF
:10087000204606F0F2FC0121204606F0DDF91FBDFE
:1008800010B5084C0121204606F0FBFC012807D1D9
:1008900022F0D4FF2046BDE81040012106F0FDBC47
:1008A00010BD00000004004000F09EB810B50446E2
:1008B00000F0B7F8200AA02101EB4000C0B200F020
:1008C00046F900F0E7F8E0B200F041F900F0E2F894
:1008D00000F0A7F8A12000F03AF900F0DBF80020C2
:1008E00000F060F9044600F0B8F8204610BD70B57D
:1008F0000D46044600F095F8200AA02101EB4000C7
:10090000C0B200F024F900F0C5F8E0B200F01FF921
:1009100000F0C0F8284600F01AF900F0BBF800F02B
:100920009CF8BDE870400A2005F06CBB2DE9F04151
:1009300016460D460746002409E0E00025FA00F0BF
:10094000C1B2381980B2FFF7D2FF641CE4B2B442DE
:10095000F3D3BDE8F0812DE9F0410D4601460020BA
:1009600004464E1908E00702301B401E80B2FFF714
:100970009DFF641C3844E4B2AC42F4D3E9E710B5FF
:10098000FF20FFF793FF55280AD05521FF20FFF7DE
:10099000AEFFFF20FFF78AFF552801D0012010BDD0
:1009A000002010BD70B515460E46044608E02046EE
:1009B000641CA4B2FFF77AFF6D1E06F8010BADB2FE
:1009C000002DF4D170BD70B514460D46064606E004
:1009D00029783046FFF78BFF761CB6B26D1C641E7B
:1009E000A4B2F5D270BD00001CB50121022005F0B3
:1009F00040FE4FF44070012400908DF80440002028
:100A00008DF8060003208DF805008DF80740694633
:100A10007C4805F02BFC7C48C0F8A042C0F8A442FA
:100A20001CBD70B57748016821F440210160016860
:100A300041F480210160744C0120C4F8A402C4F880
:100A4000A002042004F5287405F0C3FA00256560AF
:100A5000042005F0BEFA256070BD6A4810B5016833
:100A600021F440210160016841F480210160664C5D
:100A70000020C4F8A002C4F8A402042004F52874DD
:100A800005F0A7FA012020606060BDE81040042056
:100A900005F09FBA70B55B480024016821F440213D
:100AA000016001680160584D0126C5F8A462304616
:100AB00005F08FFAC5F8A062012005F08AFA07E078
:100AC000641CE4B2FA2C03D9FFF7C7FF012070BD04
:100AD000D5F824020028F3D1C5F8A00270BD70B586
:100AE000494C0025C4F8A0524648016821F4402131
:100AF0000160016841F480210160C4F8A452022021
:100B000004F5287405F065FA01202060022005F044
:100B100060FA256070BD70B53B4C0026C4F8A06239
:100B20003848016821F440210160016841F48021C6
:100B300001600125C4F8A452022004F5287405F0D0
:100B400048FA2560022005F044FA266070BD2DE9C0
:100B5000F04105462B48016821F4402101600168FD
:100B600041F480210160284E0027C6F8A0723C465F
:100B70004FF00108E809C6F8A4026806050E022035
:100B800005F027FAC6F8A082022005F022FAC6F87E
:100B9000A072022005F01DFA641CE4B2082CE9D30F
:100BA000BDE8F0812DE9F047814616480024016830
:100BB00021F44021016001680160134E254627465B
:100BC0004FF00108C6F8A072022005F002FAC6F83C
:100BD000A0826006040ED6F8240208B1641CE4B2B8
:100BE000012005F0F6F96D1CEDB2082DEAD3B9F13C
:100BF000000F04D0FFF773FF2046BDE8F087FFF732
:100C00008AFFF9E7000402400080404201B5BDF8C8
:100C10000000ADF80000BDF800004FF0D841A1F889
:100C20007E0008BD01B5BDF80000ADF80000BDF8BC
:100C300000004FF0D841A1F8800008BD08B54FF082
:100C4000D840B0F88000ADF80000BDF8000008BD45
:100C50004FF0D84222F87E0F5180704710B5FFF751
:100C6000D5FF052005F0B5F9BDE81040E6E7FE48E0
:100C70004FF0D8410089A1F87E0070474FF0D8416D
:100C8000A1F880007047C0F34511C20AC00200EB12
:100C90004110104480B27047401EC0B2FCD2704771
:100CA000F0B5F14E0C460246050AB1883046A1F572
:100CB000134340894FEA142C413B1AD0A1F5A643B7
:100CC000103B16D0B646B3793688A1F5D047B61A90
:100CD000761E043F17D07746A1F5C85EBEF1630EBD
:100CE00025D0A1F5A04EBEF5A26E57D0012B6FD036
:100CF0006FE0FFF78BFF2846FFF794FFD0B2FFF7B6
:100D000091FFB0890CE07546012B00D1B2B2FFF71C
:100D10007DFF100AFFF786FFD0B2FFF783FFA88997
:100D2000FFF774FF6046FFF77DFFE0B225E03BB3BD
:100D3000FFF76CFF2846FFF775FFD0B2FFF772FF91
:100D40003888401EC0F30F20FFF76CFF3878401E34
:100D5000C0B2FFF767FFB889FFF758FF6046FFF79B
:100D600061FFE0B2FFF75EFF7888401EC0F30F20FE
:100D7000FFF758FFB878401EC0B2BDE8F04051E719
:100D8000B2B2FFF743FF0020FFF74CFF0020FFF750
:100D900049FF100AFFF746FFD0B2DAE7FFF736FF48
:100DA0002846FFF73FFF7889401C80B2FFF72EFFEF
:100DB000D0B2FFF737FFB889FFF728FF6046FFF78B
:100DC00031FFB889401C80B2FFF720FFADE7FFE795
:100DD000B2B21146FFF73CFFB8892146BDE8F040AA
:100DE00036E72DE9F041A04E0024254632888242A4
:100DF00002D972888A4202D80020BDE8F081FFF74C
:100E00004FFFB08849F2413841F6631C45F2103279
:100E100045F21057404507D0A0F5D041043903D022
:100E2000904201D0604501D12E2005E0B84202D1A8
:100E30004FF4385000E02220FFF7E8FEB088A0F51C
:100E40001341203903D10220401EC0B2FCD2FFF76B
:100E5000F5FEB1886145D0D00220401EC0B2FCD260
:100E6000FFF7ECFE0146B088C446604503D09042CF
:100E700001D0B8420BD10220401EC0B2FCD2FFF715
:100E8000DDFE0546C8B24FF6FF7303EA0024B088C2
:100E9000A0F51343253B1DD0A0F58A43353B19D05F
:100EA000A0F58A43313B15D0A0F53543053B11D061
:100EB000A0F54543053B0DD0604503D0904201D0DD
:100EC000B84209D1C80AC002A10A40EA411040EA6A
:100ED000D52092E7084690E7BDE8F0410846D2E603
:100EE00061488088A0F51341413913D0A0F5D04165
:100EF00004390FD0A0F5A64110390BD0A0F5C85188
:100F0000633907D0A0F5AA41103905D040F273111A
:100F100007209DE6292001E04FF4245076E6524850
:100F20008088A0F51341413912D0A0F5D041043991
:100F30000ED0A0F5A64110390AD0A0F5C8516339EA
:100F400006D0A0F5AA41103904D0002107207FE681
:100F5000282001E04FF4205058E6F0B5424C002321
:100F60002146A279898846F6040741F66315012ACD
:100F700001D02AB11DE0B9421BD0A94202D118E02C
:100F8000A94216D1082814D2DFE800F00406080AA6
:100F90000C0E101206200CE007200AE0042008E0E6
:100FA000052006E0012004E0002002E0032000E02C
:100FB0000220A1F5134C45F2103245F21056BCF157
:100FC000410C07D0B94205D0914203D0B14201D0C3
:100FD000A9427CD1082812D2DFE800F011040608EB
:100FE0000A0C0E1080230AE0402308E0C02306E02C
:100FF000202304E0602302E0A02300E0E023B142CC
:1010000002D14FF4585000E03620914205D0B14251
:1010100003D0A94201D043F00803B94201D143F003
:1010200002031946FFF714FEA288AA420AD09806C6
:101030002088618802D5884202D303E0884201D922
:10104000218060806089B24245D1FFF7DFFD00203A
:10105000FFF7E8FD6089401C80B2FFF7D7FD002054
:10106000FFF7E0FD608901E0A0040020801C80B251
:10107000FFF7CCFD2088401EC0F30F20FFF7D2FD04
:101080006089C01C80B2FFF7C1FD2078401EC0B24D
:10109000FFF7C8FDA089FFF7B9FD0020FFF7C2FDEB
:1010A000A089401C80B2FFF7B1FD0020FFF7BAFD18
:1010B000A089801C80B2FFF7A9FD6088401EC0F3A4
:1010C0000F20FFF7AFFDA089C01C80B200E02AE02E
:1010D000FFF79CFD21E0FFF799FD0020FFF7A2FD3F
:1010E0000020FFF79FFD2088401EC0F30F20FFF770
:1010F00099FD2078401EC0B2FFF794FDA089FFF74C
:1011000085FD0020FFF78EFD0020FFF78BFD608836
:10111000401EC0F30F20FFF785FDA078BDE8F0402A
:10112000401EC0B27EE5082812D2DFE800F00406B7
:1011300008110A0C0E1030230AE0102308E02023C7
:1011400006E0382304E0282302E0182300E0082307
:10115000BDE8F040032043F4805179E500B5FFF786
:101160009FFDFFF784FDFE484FF0D8410088A1F8AD
:10117000800000BD2DE9F041FA4D90460C46024634
:10118000060AA9882846A1F5134340894FEA142C82
:10119000413B17D0A1F5A643103B13D0A1F5AA43BC
:1011A000103B13D02E46A1F5C857B3793688B61A2E
:1011B000761E633F23D0A1F5D047043F3AD0012BE0
:1011C0004DD04DE0FFF722FD304639E0FFF71EFD20
:1011D0003046FFF727FD6889401C80B2FFF716FDF7
:1011E000D0B2FFF71FFDA889FFF710FD6046FFF79B
:1011F00019FDA889401C80B2FFF708FD2BE003B958
:10120000B2B2FFF703FD160A3046FFF70BFDD0B26E
:10121000FFF708FD3046FFF705FDD0B2FFF702FDEE
:10122000A889FFF7F3FC6046FFF7FCFCE0B2FFF78C
:10123000F9FC0DE0012B00D1B2B2FFF7E7FC100A78
:10124000FFF7F0FCD0B2FFF7EDFCA889FFF7DEFC5A
:101250006046FFF7E7FCE0B2FFF7E4FC07E0B2B25C
:101260001146FFF7F5FCA8892146FFF7F1FC4FF086
:10127000D840298920F87E1FA0F80280BDE510B56E
:101280000246BE20FFF7C2FC0520FFF7CBFC10464C
:1012900034F0DFF99FEDB41B53EC112B34F028FA36
:1012A00034F0AAF980B2FFF7BDFC0120FFF7BAFCC9
:1012B000FF20FFF7B7FC0020FFF7B4FCBDE81040AB
:1012C0000020AFE42DE9F04FA6492A232B2489887A
:1012D00045F2105A4FF4305B4FF4285E4FF44875D6
:1012E0004FF0F00C49F241394FF4A07745F2103637
:1012F0004FF4F07280B19B484FF00108494580F8E7
:1013000006800780A0F802C001D0B1423ED12C2552
:1013100005814381848157E092484FF00008494598
:1013200080F80680A0F800C0478006D0A1F5D04C18
:10133000BCF1040C01D0B1420CD12C2505814381B4
:10134000A1F5D0438481043B01D0B14244D1078050
:10135000428041E0514507D1A0F808B0A0F80AE06A
:101360004FF42C5181810EE0A1F5C856633E06D0A2
:101370002221018120214181212181812CE02C2108
:101380000181448183810280458025E0A1F5D04C14
:10139000BCF1040C09D051450BD1A0F808B0A0F85D
:1013A0000AE04FF42C53838120E02C2505814481F1
:1013B00009E0A1F5C85CBCF1630C11D022230381C4
:1013C0002123438120238381A1F5D043043B01D015
:1013D000B14201D102804780BDE8F04F0020BCE55A
:1013E0004FF02C0CA0F808C0438184810580428016
:1013F000EAE72DE9FE4F0446104401EB0308DFF84D
:101400006491401EA8F1010887B2B9F80400C8F33E
:10141000072302930B0A0093A3185B1EC3F3072351
:1014200001934B460D465B89A0F513411FFA88F6E0
:101430004FEA142B413910D0A0F5A64110390CD039
:10144000A0F5D041043908D099F806A041F6631CF4
:10145000BAF1010F1ED160451CD14A461846FFF76C
:10146000D5FB5846FFF7DEFBE0B2FFF7DBFB019848
:10147000FFF7D8FBF8B2FFF7D5FB9089FFF7C6FB63
:101480000098FFF7CFFBE8B2FFF7CCFB0298FFF71D
:10149000C9FB95E033496045098825D1881A001BAE
:1014A00084B24E461FFA88F71846FFF7AFFB200AB2
:1014B000FFF7B8FBE0B2FFF7B5FB2244521EC2F3C0
:1014C0000F20FFF7AFFBD0B2FFF7ACFBB089FFF7FF
:1014D0009DFB0098FFF7A6FBE8B2FFF7A3FB380AD5
:1014E000FFF7A0FBF8B26CE0A0F5A04C4A46BCF5B3
:1014F000A26C23D0BAF1010F67D03B4620462F469D
:10150000502201464FF051094FF052084FF0530C52
:101510001046FFF79DFB19464846FFF799FB3946F1
:101520004046FFF795FB31466046FFF791FB03B05D
:1015300029462046BDE8F04FFFF7B2BB1846FFF73B
:1015400065FB5846FFF76EFB5089401C80B2FFF7E1
:101550005DFBE0B2FFF766FB5089801C80B207E0BC
:1015600084000020A004002066666666666604406B
:10157000FFF74CFB0198FFF755FB5089C01C80B268
:10158000FFF744FBF8B2FFF74DFB9089FFF73EFBF6
:101590000098FFF747FB9089401C80B2FFF736FBAD
:1015A000E8B2FFF73FFB9089801C80B2FFF72EFB6B
:1015B0000298FFF737FB9089C01C80B2FFF726FB2B
:1015C000F0B2BDE8FE4FFFF72DBBCA1B521E091B30
:1015D0003346491E284697B28EB291E72DE9F04373
:1015E000FF4F0646002438887D884543B888A0F51B
:1015F000D041043902D1B879012808D00021084629
:10160000FFF74EFBFFF733FB4FF0D84016E000200A
:10161000B8714FF02A09A7F80A904FF02B08A7F8E5
:101620000C800146FFF73CFB0120B871A7F80A8047
:10163000A7F80C90E6E7A0F88060641CAC42FAD3EF
:10164000BDE8F0832DE9F04FA1B0002401217A20FC
:101650001F9405F00EF80121084605F01EF8012040
:101660008DF804008DF8064002208DF80500012059
:101670004FF4004B8DF80700CDF800B06946D9480B
:1016800004F0F4FD4CF23370009002208DF8040059
:101690008DF8064003208DF8050001208DF8070025
:1016A0006946D14804F0E2FD4FF6807000900220B8
:1016B0008DF804008DF8064003208DF80500012008
:1016C000CA4D8DF807006946284604F0CFFDA814DE
:1016D000009002208DF804008DF8064003208DF85C
:1016E00005000120C24E8DF807006946304604F01F
:1016F000BDFDA814009002208DF804008DF806406E
:1017000003208DF805000120BA4F8DF807006946C7
:10171000384604F0ABFD0C220021B34804F01AFE59
:101720000C220121B04804F015FE0C220421AE4821
:1017300004F010FE0C220521AB4804F00BFE0C2235
:101740000821A94804F006FE0C220921A64804F04D
:1017500001FE0C220A21A44804F0FCFD0C220E21FB
:10176000A14804F0F7FD0C220F219F4804F0F2FD80
:101770000C220721284604F0EDFD0C220821284602
:1017800004F0E8FD0C220921284604F0E3FD0C22B8
:101790000A21284604F0DEFD0C220B21284604F025
:1017A000D9FD0C221146284604F0D4FD0C220D214F
:1017B000284604F0CFFD0C220E21284604F0CAFD75
:1017C0000C220F21284604F0C5FD0C22114630469C
:1017D00004F0C0FD0C221146384604F0BBFD0F207A
:1017E000CDE911043C20CDE9130415940920169489
:1017F000CDE917400820CDE919401B941C94062020
:10180000CDE902041D941E941020CDE904400694F5
:101810000002CDE90A40089407948000CDE90C400D
:10182000099411A8CDE90E4018A8109002A805F05F
:10183000AAFF0121062006F01FF8322004F0E2FB87
:1018400001210020FFF704FA322004F0DBFB002026
:10185000FFF704FA624A4FF020494FF6FF7A908072
:1018600049F2413545F2103645F2105441F66317FE
:1018700046F60408FF2804D3504502D0B0F5134FB4
:1018800075D1D320FFF7C2F9FFF7D8F99080FFF7A1
:10189000D5F99080FFF7D2F90AEA0020D44690806B
:1018A000FFF7CCF9918808439080A8425FD0BF2011
:1018B000FFF7ACF9FFF7C2F99080FFF7BFF990800E
:1018C000FFF7BCF99080FFF7B9F90CEA002090808F
:1018D000FFF7B4F9918808439080404547D0D42061
:1018E000FFF794F9FFF7AAF99080FFF7A7F9908026
:1018F000FFF7A4F90CEA00209080FFF79FF9918888
:1019000008439080B04232D04FF45A40FFF77EF93E
:10191000FFF794F990804FF45B40FFF777F9FFF7FA
:101920008DF90CEA002090804FF45C40FFF76EF9CF
:10193000FFF784F9918808439080584501D194803D
:101940001EE0A04213D0A120FFF760F9FFF776F95F
:101950009080FFF773F90CEA00209080FFF76EF992
:1019600091880843A0F5AE419080613920D080B2C3
:10197000A84205D0B04203D0A04201D0B84219D14C
:10198000D9F81C11484621F00F01C9F81C11D9F8EB
:101990001C1121F47061C9F81C11D9F81C1141F017
:1019A0000301C9F81C11D9F81C1141F400712BE096
:1019B0009780E5E7404503D0A0F54541053925D19D
:1019C000D9F81C11484621F00F01C9F81C11D9F8AB
:1019D0001C1121F47061C9F81C11D9F81C110BE01D
:1019E000A004002000040240000C0240001002404D
:1019F000001402400018024041F00A01C9F81C110D
:101A0000D9F81C1141F44061C0F81C11914691882D
:101A1000FEA032F099FBB9F80400A8427ED1CF2095
:101A2000FFF7F4F80020FFF7FDF8C120FFF7FAF800
:101A30003020FFF7F7F8ED20FFF7E8F86420FFF714
:101A4000F1F80320FFF7EEF81220FFF7EBF8812002
:101A5000FFF7E8F8E820FFF7D9F88520FFF7E2F86C
:101A60001020FFF7DFF87A20FFF7DCF8CB20FFF734
:101A7000CDF83920FFF7D6F82C20FFF7D3F8002057
:101A8000FFF7D0F83420FFF7CDF80220FFF7CAF8AF
:101A9000F720FFF7BBF82020FFF7C4F8EA20FFF794
:101AA000B5F80020FFF7BEF80020FFF7BBF8C02014
:101AB000FFF7ACF81B20FFF7B5F8C120FFF7A6F839
:101AC0000120FFF7AFF8C520FFF7A0F83020FFF79F
:101AD000A9F83020FFF7A6F8C720FFF797F8B7203E
:101AE000FFF7A0F83620FFF791F84820FFF79AF8A3
:101AF0003A20FFF78BF85520FFF794F8B120FFF755
:101B000085F80020FFF78EF81A20FFF78BF8B62033
:101B1000FFF77CF80A20FFF785F800E090E0A220AC
:101B2000FFF780F8F220FFF771F80020FFF77AF84E
:101B30002620FFF76BF80120FFF774F8E020FFF78D
:101B400065F80F20FFF76EF82A20FFF76BF82820C2
:101B5000FFF768F80820FFF765F80E20FFF762F836
:101B60000820FFF75FF85420FFF75CF8A920FFF783
:101B700059F84320FFF756F80A20FFF753F80F20D3
:101B8000FFF750F80020FFF74DF80020FFF74AF864
:101B90000020FFF747F80020FFF744F8E120FFF7A7
:101BA00035F80020FFF73EF81520FFF73BF8172027
:101BB000FFF738F80720FFF735F81120FFF732F864
:101BC0000620FFF72FF82B20FFF72CF85620FFF701
:101BD00029F83C20FFF726F80520FFF723F810200E
:101BE000FFF720F80F20FFF71DF83F20FFF71AF846
:101BF0003F20FFF717F80F20FFF714F82B20FFF70F
:101C000005F80020FFF70EF80020FFF70BF8012081
:101C1000FFF708F83F20FFF705F82A20FEF7F6FF48
:101C20000020FEF7FFFF0020FEF7FCFF0020FEF77C
:101C3000F9FFEF20FEF7F6FF1120FEF7E7FFA5E022
:101C400040457CD11120FEF7E1FF142004F0DAF9C1
:101C5000D020FEF7DBFF0720FEF7E4FF4220FEF76F
:101C6000E1FF1D20FEF7DEFFD120FEF7CFFF0020B1
:101C7000FEF7D8FF1A20FEF7D5FF0920FEF7D2FFA6
:101C8000D220FEF7C3FF0120FEF7CCFF2220FEF793
:101C9000C9FFC020FEF7BAFF1020FEF7C3FF3B20AC
:101CA000FEF7C0FF0020FEF7BDFF0220FEF7BAFFDF
:101CB0001120FEF7B7FFC520FEF7A8FF0320FEF7AF
:101CC000B1FFC820FEF7A2FF0020FEF7ABFF2520E2
:101CD000FEF7A8FF2120FEF7A5FF0520FEF7A2FFD3
:101CE0000020FEF79FFF0A20FEF79CFF6520FEF70D
:101CF00099FF2520FEF796FF7720FEF793FF5020EF
:101D0000FEF790FF0F20FEF78DFF0020FEF78AFF01
:101D1000F820FEF77BFF0120FEF784FFFE20FEF790
:101D200075FF0020FEF77EFF0220FEF77BFF2020DC
:101D3000FEF76CFF3620FEF769FF082000E02BE07D
:101D4000FEF770FF3A20FEF761FF5520FEF76AFFAD
:101D50002B20FEF75BFF0020FEF764FF0020FEF75C
:101D600061FF0120FEF75EFF3F20FEF75BFF2A20A8
:101D7000FEF74CFF0020FEF755FF0020FEF752FF54
:101D80000120FEF74FFFDF20FEF74CFF782004F024
:101D900039F9292001F004BFB0427CD1ED20FEF7D3
:101DA00035FF0120FEF73EFFFE20FEF73BFFEE2051
:101DB000FEF72CFFDE20FEF735FF2120FEF732FF75
:101DC000F120FEF723FF0120FEF72CFFDF20FEF7B6
:101DD0001DFF1020FEF726FFC420FEF717FF8F20FF
:101DE000FEF720FFC620FEF711FF0020FEF71AFFC6
:101DF000E220FEF717FFE220FEF714FFE220FEF7D5
:101E000011FFBF20FEF702FFAA2007E0204C434449
:101E10002049443A25780D0A00000000FEF702FF31
:101E2000B020FEF7F3FE0D20FEF7FCFE0020FEF7CB
:101E3000F9FE0D20FEF7F6FE0020FEF7F3FE11205E
:101E4000FEF7F0FE0020FEF7EDFE1920FEF7EAFE99
:101E50000020FEF7E7FE2120FEF7E4FE0020FEF75B
:101E6000E1FE2D20FEF7DEFE0020FEF7DBFE3D202A
:101E7000FEF7D8FE0020FEF7D5FE5D20FEF7D2FE6D
:101E80000020FEF7CFFE5D20FEF7CCFE0020FEF71F
:101E9000C9FEB12000E0FCE3FEF7B8FE8020FEF7AB
:101EA000C1FE0020FEF7BEFE8B20FEF7BBFE002029
:101EB000FEF7B8FE9620FEF7B5FE0020FEF7B2FE54
:101EC000B220FEF7A3FE0020FEF7ACFE0020FEF7D6
:101ED000A9FE0220FEF7A6FE0020FEF7A3FE0320C7
:101EE000FEF7A0FE0020FEF79DFEB320FEF78EFE5B
:101EF0000020FEF797FE0020FEF794FE0020FEF77C
:101F000091FE0020FEF78EFE0020FEF78BFE0020E3
:101F1000FEF788FE0020FEF785FE0020FEF782FE19
:101F20000020FEF77FFE0020FEF77CFE0020FEF77B
:101F300079FE0020FEF776FE0020FEF773FE0020FB
:101F4000FEF770FE0020FEF76DFE0020FEF76AFE31
:101F50000020FEF767FE0020FEF764FE0020FEF77B
:101F600061FE0020FEF75EFE0020FEF75BFE002013
:101F7000FEF758FE0020FEF755FE0020FEF752FE49
:101F8000B420FEF743FE8B20FEF74CFE0020FEF748
:101F900049FE9620FEF746FE0020FEF743FEA120F4
:101FA000FEF740FE0020FEF73DFEB520FEF72EFEB8
:101FB0000220FEF737FE0020FEF734FE0320FEF776
:101FC00031FE0020FEF72EFE0420FEF72BFE00203F
:101FD000FEF728FEB620FEF719FE0020FEF722FECF
:101FE0000020FEF71FFEB720FEF710FE0020FEF7D0
:101FF00019FE0020FEF716FE3F20FEF713FE00201C
:10200000FEF710FE5E20FEF70DFE0020FEF70AFE32
:102010006420FEF707FE0020FEF704FE8C20FEF78A
:1020200001FE0020FEF7FEFDAC20FEF7FBFD0020C8
:10203000FEF7F8FDDC20FEF7F5FD0020FEF7F2FDCF
:102040007020FEF7EFFD0020FEF7ECFD9020FEF77C
:10205000E9FD0020FEF7E6FDEB20FEF7E3FD0020A2
:10206000FEF7E0FDDC20FEF7DDFD0020FEF7DAFDE7
:10207000B820FEF7CBFD0020FEF7D4FD0020FEF7D0
:10208000D1FD0020FEF7CEFD0020FEF7CBFD0020A5
:10209000FEF7C8FD0020FEF7C5FD0020FEF7C2FDDB
:1020A0000020FEF7BFFDBA20FEF7B0FD2420FEF7AA
:1020B000B9FD0020FEF7B6FD0020FEF7B3FD0020BD
:1020C000FEF7B0FDC120FEF7A1FD2020FEF7AAFD1E
:1020D0000020FEF7A7FD5420FEF7A4FD0020FEF728
:1020E000A1FDFF20FEF79EFD0020FEF79BFDC22014
:1020F000FEF78CFD0A20FEF795FD0020FEF792FD0D
:102100000420FEF78FFD0020FEF78CFDC320FEF7B4
:102110007DFD3C20FEF786FD0020FEF783FD3A2082
:10212000FEF780FD0020FEF77DFD3920FEF77AFDE9
:102130000020FEF777FD3720FEF774FD0020FEF744
:1021400071FD3C20FEF76EFD0020FEF76BFD362092
:10215000FEF768FD0020FEF765FD3220FEF762FD08
:102160000020FEF75FFD2F20FEF75CFD0020FEF74C
:1021700059FD2C20FEF756FD0020FEF753FD2920C7
:10218000FEF750FD0020FEF74DFD2620FEF74AFD2C
:102190000020FEF747FD2420FEF744FD0020FEF757
:1021A00041FD2420FEF73EFD0020FEF73BFD2320ED
:1021B000FEF738FD0020FEF735FD3C20FEF732FD2E
:1021C0000020FEF72FFD3620FEF72CFD0020FEF745
:1021D00029FD3220FEF726FD0020FEF723FD2F20EB
:1021E000FEF720FD0020FEF71DFD2C20FEF71AFD56
:1021F0000020FEF717FD2920FEF714FD0020FEF752
:1022000011FD2620FEF70EFD0020FEF70BFD242019
:10221000FEF708FD0020FEF705FD2420FEF702FD75
:102220000020FEF7FFFC2320FEF7FCFC0020FEF759
:10223000F9FCC420FEF7EAFC6220FEF7F3FC002064
:10224000FEF7F0FC0520FEF7EDFC0020FEF7EAFCAF
:102250008420FEF7E7FC0020FEF7E4FCF020FEF708
:10226000E1FC0020FEF7DEFC1820FEF7DBFC00207E
:10227000FEF7D8FCA420FEF7D5FC0020FEF7D2FC28
:102280001820FEF7CFFC0020FEF7CCFC5020FEF714
:10229000C9FC0020FEF7C6FC0C20FEF7C3FC0020A2
:1022A000FEF7C0FC1720FEF7BDFC0020FEF7BAFCCD
:1022B0009520FEF7B7FC0020FEF7B4FCF320FEF7F4
:1022C000B1FC0020FEF7AEFCE620FEF7ABFC0020E0
:1022D000FEF7A8FCC520FEF799FC3220FEF7A2FC11
:1022E0000020FEF79FFC4420FEF79CFC0020FEF738
:1022F00099FC6520FEF796FC0020FEF793FC762003
:10230000FEF790FC0020FEF78DFC8820FEF78AFC8B
:102310000020FEF787FCC620FEF778FC2020FEF7A1
:1023200081FC0020FEF77EFC1720FEF77BFC0020DE
:10233000FEF778FC0120FEF775FC0020FEF772FC2A
:10234000C720FEF763FC0020FEF76CFC0020FEF7C0
:1023500069FC0020FEF766FC0020FEF763FCC82045
:10236000FEF754FC0020FEF75DFC0020FEF75AFC4F
:102370000020FEF757FC0020FEF754FCC920FEF7B2
:1023800045FC0020FEF74EFC0020FEF74BFC002031
:10239000FEF748FC0020FEF745FC0020FEF742FC5B
:1023A0000020FEF73FFC0020FEF73CFC0020FEF77B
:1023B00039FC0020FEF736FC0020FEF733FC00203D
:1023C000FEF730FC0020FEF72DFC0020FEF72AFC73
:1023D0000020FEF727FC0020FEF724FC0020FEF77B
:1023E00021FCE020FEF712FC1620FEF71BFC00206B
:1023F000FEF718FC1C20FEF715FC0020FEF712FC6F
:102400002120FEF70FFC0020FEF70CFC3620FEF723
:1024100009FC0020FEF706FC4620FEF703FC002026
:10242000FEF700FC5220FEF7FDFB0020FEF7FAFB52
:102430006420FEF7F7FB0020FEF7F4FB7A20FEF79E
:10244000F1FB0020FEF7EEFB8B20FEF7EBFB0020FC
:10245000FEF7E8FB9920FEF7E5FB0020FEF7E2FB24
:10246000A820FEF7DFFB0020FEF7DCFBB920FEF71B
:10247000D9FB0020FEF7D6FBC420FEF7D3FB0020DB
:10248000FEF7D0FBCA20FEF7CDFB0020FEF7CAFB0B
:10249000D220FEF7C7FB0020FEF7C4FBD920FEF7D1
:1024A000C1FB0020FEF7BEFBE020FEF7BBFB0020D7
:1024B000FEF7B8FBF320FEF7B5FB0020FEF7B2FBFA
:1024C000E120FEF7A3FB1620FEF7ACFB0020FEF791
:1024D000A9FB1C20FEF7A6FB0020FEF7A3FB222091
:1024E000FEF7A0FB0020FEF79DFB3620FEF79AFBCF
:1024F0000020FEF797FB4520FEF794FB0020FEF737
:1025000091FB5220FEF78EFB0020FEF78BFB642030
:10251000FEF788FB0020FEF785FB7A20FEF782FBA2
:102520000020FEF77FFB8B20FEF77CFB0020FEF7F0
:1025300079FB9920FEF776FB0020FEF773FBA820BD
:10254000FEF770FB0020FEF76DFBB920FEF76AFB7B
:102550000020FEF767FBC420FEF764FB0020FEF7B7
:1025600061FBCA20FEF75EFB0020FEF75BFBD2207A
:10257000FEF758FB0020FEF755FBD820FEF752FB74
:102580000020FEF74FFBE020FEF74CFB0020FEF79B
:1025900049FBF320FEF746FB0020FEF743FBE22059
:1025A000FEF734FB0520FEF73DFB0020FEF73AFB6B
:1025B0000B20FEF737FB0020FEF734FB1B20FEF755
:1025C00031FB0020FEF72EFB3420FEF72BFB002012
:1025D000FEF728FB4420FEF725FB0020FEF722FB38
:1025E0004F20FEF71FFB0020FEF71CFB6120FEF7CB
:1025F00019FB0020FEF716FB7920FEF713FB0020E5
:10260000FEF710FB8820FEF70DFB0020FEF70AFB0B
:102610009720FEF707FB0020FEF704FBA620FEF73D
:1026200001FB0020FEF7FEFAB720FEF7FBFA0020C0
:10263000FEF7F8FAC220FEF7F5FA0020FEF7F2FAEC
:10264000C720FEF7EFFA0020FEF7ECFAD120FEF7E4
:10265000E9FA0020FEF7E6FAD620FEF7E3FA0020BA
:10266000FEF7E0FADD20FEF7DDFA0020FEF7DAFAE9
:10267000F320FEF7D7FA0020FEF7D4FAE320FEF7A6
:10268000C5FA0520FEF7CEFA0020FEF7CBFA0A20A5
:1026900000E006E3FEF7C6FA0020FEF7C3FA1C20AE
:1026A000FEF7C0FA0020FEF7BDFA3320FEF7BAFAB3
:1026B0000020FEF7B7FA4420FEF7B4FA0020FEF738
:1026C000B1FA5020FEF7AEFA0020FEF7ABFA622016
:1026D000FEF7A8FA0020FEF7A5FA7820FEF7A2FA86
:1026E0000020FEF79FFA8820FEF79CFA0020FEF7F4
:1026F00099FA9720FEF796FA0020FEF793FAA620A3
:10270000FEF790FA0020FEF78DFAB720FEF78AFA5E
:102710000020FEF787FAC220FEF784FA0020FEF7B9
:1027200081FAC720FEF77EFA0020FEF77BFAD1205F
:10273000FEF778FA0020FEF775FAD520FEF772FA58
:102740000020FEF76FFADD20FEF76CFA0020FEF79E
:1027500069FAF320FEF766FA0020FEF763FAE42038
:10276000FEF754FA0120FEF75DFA0020FEF75AFA50
:102770000120FEF757FA0020FEF754FA0220FEF778
:1027800051FA0020FEF74EFA2A20FEF74BFA0020FD
:10279000FEF748FA3C20FEF745FA0020FEF742FA21
:1027A0004B20FEF73FFA0020FEF73CFA5D20FEF7D3
:1027B00039FA0020FEF736FA7420FEF733FA0020CB
:1027C000FEF730FA8420FEF72DFA0020FEF72AFAF1
:1027D0009320FEF727FA0020FEF724FAA220FEF746
:1027E00021FA0020FEF71EFAB320FEF71BFA0020A4
:1027F000FEF718FABE20FEF715FA0020FEF712FACF
:10280000C420FEF70FFA0020FEF70CFACD20FEF7E9
:1028100009FA0020FEF706FAD320FEF703FA00209B
:10282000FEF700FADD20FEF7FDF90020FEF7FAF9C9
:10283000F320FEF7F7F90020FEF7F4F9E520FEF7A4
:10284000E5F90020FEF7EEF90020FEF7EBF9002095
:10285000FEF7E8F90020FEF7E5F90220FEF7E2F9BD
:102860000020FEF7DFF92920FEF7DCF90020FEF753
:10287000D9F93C20FEF7D6F90020FEF7D3F94B201A
:10288000FEF7D0F90020FEF7CDF95D20FEF7CAF97A
:102890000020FEF7C7F97420FEF7C4F90020FEF708
:1028A000C1F98420FEF7BEF90020FEF7BBF99320A2
:1028B000FEF7B8F90020FEF7B5F9A220FEF7B2F94D
:1028C0000020FEF7AFF9B320FEF7ACF90020FEF7C9
:1028D000A9F9BE20FEF7A6F90020FEF7A3F9C4204F
:1028E000FEF7A0F90020FEF79DF9CD20FEF79AF93A
:1028F0000020FEF797F9D320FEF794F90020FEF7A9
:1029000091F9DC20FEF78EF90020FEF78BF9F32019
:10291000FEF788F90020FEF785F9E620FEF776F944
:102920001120FEF77FF90020FEF77CF93420FEF736
:1029300079F90020FEF776F95620FEF773F90020AA
:10294000FEF770F97620FEF76DF90020FEF76AF9C0
:102950007720FEF767F90020FEF764F96620FEF79E
:1029600061F90020FEF75EF98820FEF75BF9002090
:10297000FEF758F99920FEF755F90020FEF752F9B5
:10298000BB20FEF74FF90020FEF74CF99920FEF727
:1029900049F90020FEF746F96620FEF743F90020CA
:1029A000FEF740F95520FEF73DF90020FEF73AF911
:1029B0005520FEF737F90020FEF734F94520FEF7E1
:1029C00031F90020FEF72EF94320FEF72BF9002005
:1029D000FEF728F94420FEF725F90020FEF722F93A
:1029E000E720FEF713F93220FEF71CF90020FEF76E
:1029F00019F95520FEF716F90020FEF713F9762095
:102A0000FEF710F90020FEF70DF96620FEF70AF92F
:102A10000020FEF707F96720FEF704F90020FEF713
:102A200001F96720FEF7FEF80020FEF7FBF887208B
:102A3000FEF7F8F80020FEF7F5F89920FEF7F2F817
:102A40000020FEF7EFF8BB20FEF7ECF80020FEF7C1
:102A5000E9F89920FEF7E6F80020FEF7E3F8772082
:102A6000FEF7E0F80020FEF7DDF84420FEF7DAF884
:102A70000020FEF7D7F85620FEF7D4F80020FEF726
:102A8000D1F82320FEF7CEF80020FEF7CBF8332054
:102A9000FEF7C8F80020FEF7C5F84520FEF7C2F89B
:102AA0000020FEF7BFF8E820FEF7B0F80020FEF7A0
:102AB000B9F80020FEF7B6F89920FEF7B3F8002029
:102AC000FEF7B0F88720FEF7ADF80020FEF7AAF871
:102AD0008820FEF7A7F80020FEF7A4F87720FEF77D
:102AE000A1F80020FEF79EF86620FEF79BF8002074
:102AF000FEF798F88820FEF795F80020FEF792F888
:102B0000AA20FEF78FF80020FEF78CF8BB20FEF716
:102B100089F80020FEF786F89920FEF783F8002058
:102B2000FEF780F86620FEF77DF80020FEF77AF8C1
:102B30005520FEF777F80020FEF774F85520FEF7D1
:102B400071F80020FEF76EF84420FEF76BF80020C5
:102B5000FEF768F84420FEF765F80020FEF762F8FB
:102B60005520FEF75FF80020FEF75CF8E920FEF73D
:102B70004DF8AA20FEF756F80020FEF753F8002083
:102B8000FEF750F80020FEF74DF80020FEF73EF863
:102B9000AA20FEF747F8CF20FEF738F80020FEF70E
:102BA00041F80020FEF73EF80020FEF73BF8002039
:102BB000FEF738F80020FEF735F80020FEF732F86F
:102BC0000020FEF72FF80020FEF72CF80020FEF77B
:102BD00029F80020FEF726F80020FEF723F8002051
:102BE000FEF720F80020FEF71DF80020FEF71AF887
:102BF0000020FEF717F80020FEF714F80020FEF77B
:102C000011F8F020FEF702F80020FEF70BF8502034
:102C1000FEF708F80020FEF705F80020FEF702F89E
:102C20000020FDF7FFFFF320FDF7F0FF0020FDF788
:102C3000F9FFF920FDF7EAFF0620FDF7F3FF10206A
:102C4000FDF7F0FF2920FDF7EDFF0020FDF7EAFF7B
:102C50003A20FDF7DBFF5520FDF7E4FF1120FDF7DB
:102C6000D5FF642003F0CEF92920FDF7CFFF3520F2
:102C7000FDF7CCFF0020FDF7D5FF5120FDF7C6FF83
:102C8000FF20FDF7CFFF5320FDF7C0FF2C20FDF7FD
:102C9000C9FF5520FDF7BAFF8220FDF7C3FF2C20A6
:102CA000FEE3A0427ED14FF4704355211846FDF754
:102CB000CFFF4FF20104AA212046FDF7C9FF651C92
:102CC00052212846FDF7C4FFA61C08213046FDF717
:102CD000BFFFE71C01213846FDF7BAFF0D214FF475
:102CE0003040FDF7B5FF0D214BF20100FDF7B0FFBD
:102CF0000D214BF20200FDF7ABFF4FF4364C3421AF
:102D00006046FDF7A5FF34214BF20160FDF7A0FFFF
:102D100034214BF20260FDF79BFF4FF431480D2147
:102D20004046FDF795FF4BF2011B0D215846FDF77C
:102D30008FFF0D214BF20210FDF78AFF34214FF473
:102D40003740FDF785FF34214BF20170FDF780FF1E
:102D500034214BF20270FDF77BFF00214FF432402B
:102D6000FDF776FF00214BF20120FDF771FF0021F6
:102D70004BF20220FDF76CFF24214FF43840FDF7A1
:102D800067FF24214BF60100FDF762FF24214BF67B
:102D90000200FDF75DFF01214FF43F40FDF758FFB2
:102DA0000F2100E0FEE34FF43340FDF751FF0F2108
:102DB0004BF20130FDF74CFF0F214BF20230FDF7D3
:102DC00047FF34214FF43940FDF742FF34214BF6E1
:102DD0000110FDF73DFF34214BF60210FDF738FFDF
:102DE00008214FF43540FDF733FF08214BF2015025
:102DF000FDF72EFF08214BF20250FDF729FF0321BA
:102E00004FF44240FDF724FF24214FF43A40FDF7F0
:102E10001FFF24214BF60120FDF71AFF24214BF65A
:102E20000220FDF715FF00214FF43C40FDF710FF95
:102E300078214BF60140FDF70BFF00214BF60240D5
:102E4000FDF706FF00214FF43D40FDF701FF78211B
:102E50004BF60150FDF7FCFE00214BF60250FDF74A
:102E6000F7FE00214FF43E40FDF7F2FE64214BF6E1
:102E70000160FDF7EDFE00214FF45140FDF7E8FE43
:102E800033214DF20110FDF7E3FE00214DF2021057
:102E9000FDF7DEFE34214DF20310FDF7D9FE0021CF
:102EA0004DF20410FDF7D4FE3A214DF20510FDF766
:102EB000CFFE00214DF20610FDF7CAFE4A214DF269
:102EC0000710FDF7C5FE00214DF20810FDF7C0FE0A
:102ED0005C214DF20910FDF7BBFE00214DF20A10F6
:102EE000FDF7B6FE81214DF20B10FDF7B1FE00217A
:102EF0004DF20C10FDF7ACFEA6214DF20D10FDF7C2
:102F0000A7FE00214DF20E10FDF7A2FEE5214DF2C5
:102F10000F10FDF79DFE01214DF21010FDF798FEF8
:102F200013214DF21110FDF793FE01214DF2121005
:102F3000FDF78EFE54214DF21310FDF789FE01219D
:102F40004DF21410FDF784FE82214DF21510FDF7AD
:102F50007FFE01214DF21610FDF77AFECA214DF2D7
:102F60001710FDF775FE02214DF21810FDF770FEE7
:102F700000214DF21910FDF76BFE02214DF21A10DF
:102F8000FDF766FE01214DF21B10FDF761FE0221E7
:102F90004DF21C10FDF75CFE34214DF21D10FDF7C3
:102FA00057FE02214DF21E10FDF752FE67214DF231
:102FB0001F10FDF74DFE02214DF22010FDF748FED7
:102FC00084214DF22110FDF743FE02214DF2221023
:102FD000FDF73EFEA4214DF22310FDF739FE02213C
:102FE0004DF22410FDF734FEB7214DF22510FDF708
:102FF0002FFE02214DF22610FDF72AFECF214DF2C1
:103000002710FDF725FE02214DF22810FDF720FEC6
:10301000DE214DF22910FDF71BFE02214DF22A1090
:10302000FDF716FEF2214DF22B10FDF711FE0221E5
:103030004DF22C10FDF70CFEFE214DF22D10FDF788
:1030400007FE03214DF22E10FDF702FE10214DF276
:103050002F10FDF7FDFD03214DF23010FDF7F8FDB7
:1030600033214DF23110FDF7F3FD03214DF2321003
:10307000FDF7EEFD6D214DF23310FDF7E9FD002166
:103080004FF45240FDF7E4FD33214DF20120FDF7EE
:10309000DFFD00214DF20220FDF7DAFD34214DF273
:1030A0000320FDF7D5FD00214DF20420FDF7D0FDF2
:1030B0003A214DF20520FDF7CBFD00214DF206200F
:1030C000FDF7C6FD4A214DF20720FDF7C1FD0021A5
:1030D0004DF20820FDF7BCFD5C214DF20920FDF703
:1030E000B7FD00214DF20A20FDF7B2FD81214DF21E
:1030F0000B20FDF7ADFD00214DF20C20FDF7A8FDE2
:10310000A6214DF20D20FDF7A3FD00214DF20E206A
:10311000FDF79EFDE5214DF20F20FDF799FD012100
:103120004DF21020FDF794FD13214DF21120FDF713
:103130008FFD01214DF21220FDF78AFD54214DF241
:103140001320FDF785FD01214DF21420FDF780FDD0
:1031500082214DF21520FDF77BFD01214DF2162055
:10316000FDF776FDCA214DF21720FDF771FD022112
:103170004DF21820FDF76CFD00214DF21920FDF7EE
:1031800067FD02214DF21A20FDF762FD01214DF28B
:103190001B20FDF75DFD02214DF21C20FDF758FDBF
:1031A00034214DF21D20FDF753FD02214DF21E206A
:1031B000FDF74EFD67214DF21F20FDF749FD02216D
:1031C0004DF22020FDF744FD84214DF22120FDF732
:1031D0003FFD02214DF22220FDF73AFDA4214DF2E0
:1031E0002320FDF735FD02214DF22420FDF730FDAF
:1031F000B7214DF22520FDF72BFD02214DF22620AF
:10320000FDF726FDCF214DF22720FDF721FD0221FC
:103210004DF22820FDF71CFDDE214DF22920FDF79F
:1032200017FD02214DF22A20FDF712FDF2214DF289
:103230002B20FDF70DFD02214DF22C20FDF708FD9E
:10324000FE214DF22D20FDF703FD03214DF22E202E
:10325000FDF7FEFC10214DF22F20FDF7F9FC0321B4
:103260004DF23020FDF7F4FC33214DF23120FDF713
:10327000EFFC03214DF23220FDF7EAFC6D214DF207
:103280003320FDF7E5FC00214FF45340FDF7E0FC4F
:1032900033214DF20130FDF7DBFC00214DF202300D
:1032A000FDF7D6FC34214DF20330FDF7D1FC0021AF
:1032B0004DF20430FDF7CCFC3A214DF20530FDF71C
:1032C000C7FC00214DF20630FDF7C2FC4A214DF249
:1032D0000730FDF7BDFC00214DF20830FDF7B8FCCA
:1032E0005C214DF20930FDF7B3FC00214DF20A30AC
:1032F000FDF7AEFC81214DF20B30FDF7A9FC00215A
:103300004DF20C30FDF7A4FCA6214DF20D30FDF777
:103310009FFC00214DF20E30FDF79AFCE5214DF2A5
:103320000F30FDF795FC01214DF21030FDF790FCB8
:1033300013214DF21130FDF78BFC01214DF21230BB
:10334000FDF786FC54214DF21330FDF781FC01217D
:103350004DF21430FDF77CFC82214DF21530FDF763
:1033600077FC01214DF21630FDF772FCCA214DF2B7
:103370001730FDF76DFC02214DF21830FDF768FCA7
:1033800000214DF21930FDF763FC02214DF21A3095
:10339000FDF75EFC01214DF21B30FDF759FC0221C7
:1033A0004DF21C30FDF754FC34214DF21D30FDF779
:1033B0004FFC02214DF21E30FDF74AFC67214DF211
:1033C0001F30FDF745FC02214DF22030FDF740FC97
:1033D00084214DF22130FDF73BFC02214DF22230D9
:1033E000FDF736FCA4214DF22330FDF731FC02211C
:1033F0004DF22430FDF72CFCB7214DF22530FDF7BE
:1034000027FC02214DF22630FDF722FCCF214DF2A0
:103410002730FDF71DFC02214DF22830FDF718FC86
:10342000DE214DF22930FDF713FC02214DF22A3046
:10343000FDF70EFCF2214DF22B30FDF709FC0221C5
:103440004DF22C30FDF704FCFE214DF22D30FDF73E
:10345000FFFB03214DF22E30FDF7FAFB10214DF258
:103460002F30FDF7F5FB03214DF23030FDF7F0FB77
:1034700033214DF23130FDF7EBFB03214DF23230B9
:10348000FDF7E6FB6D214DF23330FDF7E1FB002146
:103490004FF45440FDF7DCFB33214DF2014000E0D6
:1034A0007EE3FDF7D5FB00214DF20240FDF7D0FB96
:1034B00034214DF20340FDF7CBFB00214DF20440D7
:1034C000FDF7C6FB3A214DF20540FDF7C1FB002197
:1034D0004DF20640FDF7BCFB4A214DF20740FDF7D7
:1034E000B7FB00214DF20840FDF7B2FB5C214DF225
:1034F0000940FDF7ADFB00214DF20A40FDF7A8FBA6
:1035000081214DF20B40FDF7A3FB00214DF20C4051
:10351000FDF79EFBA6214DF20D40FDF799FB002122
:103520004DF20E40FDF794FBE5214DF20F40FDF703
:103530008FFB01214DF21040FDF78AFB13214DF264
:103540001140FDF785FB01214DF21240FDF780FB94
:1035500054214DF21340FDF77BFB01214DF2144045
:10356000FDF776FB82214DF21540FDF771FB01213D
:103570004DF21640FDF76CFBCA214DF21740FDF7E6
:1035800067FB02214DF21840FDF762FB00214DF26E
:103590001940FDF75DFB02214DF21A40FDF758FB83
:1035A000012100E0FFE24DF21B40FDF751FB02213B
:1035B0004DF21C40FDF74CFB34214DF21D40FDF750
:1035C00047FB02214DF21E40FDF742FB67214DF201
:1035D0001F40FDF73DFB02214DF22040FDF738FB77
:1035E00084214DF22140FDF733FB02214DF22240B0
:1035F000FDF72EFBA4214DF22340FDF729FB02210C
:103600004DF22440FDF724FBB7214DF22540FDF794
:103610001FFB02214DF22640FDF71AFBCF214DF290
:103620002740FDF715FB02214DF22840FDF710FB66
:10363000DE214DF22940FDF70BFB02214DF22A401D
:10364000FDF706FBF2214DF22B40FDF701FB0221B5
:103650004DF22C40FDF7FCFAFE214DF22D40FDF716
:10366000F7FA03214DF22E40FDF7F2FA10214DF248
:103670002F40FDF7EDFA03214DF23040FDF7E8FA57
:1036800033214DF23140FDF7E3FA03214DF2324090
:10369000FDF7DEFA6D214DF23340FDF7D9FA002136
:1036A0004FF45540FDF7D4FA33214DF20150FDF7A8
:1036B000CFFA00214DF20250FDF7CAFA34214DF243
:1036C0000350FDF7C5FA00214DF20450FDF7C0FA92
:1036D0003A214DF20550FDF7BBFA00214DF206509C
:1036E000FDF7B6FA4A214DF20750FDF7B1FA002175
:1036F0004DF20850FDF7ACFA5C214DF20950FDF790
:10370000A7FA00214DF20A50FDF7A2FA81214DF2ED
:103710000B50FDF79DFA00214DF20C50FDF798FA81
:10372000A6214DF20D50FDF793FA00214DF20E50F7
:10373000FDF78EFAE5214DF20F50FDF789FA0121D0
:103740004DF21050FDF784FA13214DF21150FDF7A0
:103750007FFA01214DF21250FDF77AFA54214DF211
:103760001350FDF775FA01214DF21450FDF770FA70
:1037700082214DF21550FDF76BFA01214DF21650E2
:10378000FDF766FACA214DF21750FDF761FA0221E2
:103790004DF21850FDF75CFA00214DF21950FDF77B
:1037A00057FA02214DF21A50FDF752FA01214DF25B
:1037B0001B50FDF74DFA02214DF21C50FDF748FA5F
:1037C00034214DF21D50FDF743FA02214DF21E50F7
:1037D000FDF73EFA67214DF21F50FDF739FA02213D
:1037E0004DF22050FDF734FA84214DF22150FDF7BF
:1037F0002FFA02214DF22250FDF72AFAA4214DF2B0
:103800002350FDF725FA02214DF22450FDF720FA4E
:10381000B7214DF22550FDF71BFA02214DF226503B
:10382000FDF716FACF214DF22750FDF711FA0221CC
:103830004DF22850FDF70CFADE214DF22950FDF72C
:1038400007FA02214DF22A50FDF702FAF2214DF259
:103850002B50FDF7FDF902214DF22C50FDF7F8F940
:10386000FE214DF22D50FDF7F3F903214DF22E50BC
:10387000FDF7EEF910214DF22F50FDF7E9F9032184
:103880004DF23050FDF7E4F933214DF23150FDF7A0
:10389000DFF903214DF23250FDF7DAF96D214DF2D7
:1038A0003350FDF7D5F900214FF45640FDF7D0F91C
:1038B00033214DF20160FDF7CBF900214DF202609A
:1038C000FDF7C6F934214DF20360FDF7C1F900217F
:1038D0004DF20460FDF7BCF93A214DF20560FDF7A9
:1038E000B7F900214DF20660FDF7B2F94A214DF219
:1038F0000760FDF7ADF900214DF20860FDF7A8F96A
:103900005C214DF20960FDF7A3F900214DF20A6038
:10391000FDF79EF981214DF20B60FDF799F9002129
:103920004DF20C60FDF794F9A6214DF20D60FDF704
:103930008FF900214DF20E60FDF78AF9E5214DF275
:103940000F60FDF785F901214DF21060FDF780F958
:1039500013214DF21160FDF77BF901214DF2126048
:10396000FDF776F954214DF21360FDF771F901214D
:103970004DF21460FDF76CF982214DF21560FDF7F0
:1039800067F901214DF21660FDF762F9CA214DF287
:103990001760FDF75DF902214DF21860FDF758F947
:1039A00000214DF21960FDF753F902214DF21A6022
:1039B000FDF74EF901214DF21B60FDF749F9022197
:1039C0004DF21C60FDF744F934214DF21D60FDF706
:1039D0003FF902214DF21E60FDF73AF967214DF2E1
:1039E0001F60FDF735F902214DF22060FDF730F937
:1039F00084214DF22160FDF72BF902214DF2226066
:103A0000FDF726F9A4214DF22360FDF721F90221EB
:103A10004DF22460FDF71CF9B7214DF22560FDF74A
:103A200017F902214DF22660FDF712F9CF214DF270
:103A30002760FDF70DF902214DF22860FDF708F926
:103A4000DE214DF22960FDF703F902214DF22A60D3
:103A5000FDF7FEF8F2214DF22B60FDF7F9F8022197
:103A60004DF22C60FDF7F4F8FE214DF22D60FDF7CC
:103A7000EFF803214DF22E60FDF7EAF810214DF228
:103A80002F60FDF7E5F803214DF23060FDF7E0F817
:103A900033214DF23160FDF7DBF803214DF2326046
:103AA000FDF7D6F86D214DF23360FDF7D1F85521C1
:103AB0001846FDF7CDF8AA212046FDF7C9F8522196
:103AC0002846FDF7C5F808213046FDF7C1F800216A
:103AD0003846FDF7BDF8CC214046FDF7B9F8002186
:103AE0005846FDF7B5F805216046FDF7B1F870219D
:103AF0004FF43740FDF7ACF870214BF20170FDF741
:103B0000A7F801214FF43840FDF7A2F803214BF646
:103B10000100FDF79DF803214BF60200FDF798F830
:103B200003214BF60300FDF793F802214FF43C40CC
:103B3000FDF78EF800214BF60140FDF789F80021D2
:103B40004BF60240FDF784F8D0214FF44940FDF7D1
:103B50007FF802214CF60110FDF77AF850214CF65F
:103B60000210FDF775F850214CF60310FDF770F8C0
:103B700050214CF60410FDF76BF800214FF454501F
:103B8000FDF766F855214FF46850FDF761F84FF4E2
:103B90008850FDF73BF8782002F01BFA4FF42450D0
:103BA000FDF734F8FBE0A0F513414FF480744FF4B7
:103BB000E06B4FF4274625397ED0A0F5134140F243
:103BC0000775283979D0A0F513414FF488764FF462
:103BD0001C58203972D0A0F5134131396FD0A0F5AF
:103BE000A84108396CD0A0F5A8514FF440760539AA
:103BF00067D0A0F5354105397ED0A0F5454105399E
:103C00007BD0A0F58A41313978D0A0F58A41353989
:103C100075D0B842C6D1E220FCF7F8FF1D20FDF7B1
:103C200001F80220FCF7FEFF0420FCF7FBFF6420F4
:103C300002F0CFF9E020FCF7E9FF0120FCF7F2FFEA
:103C40000A2002F0DFF9E020FCF7E0FF0320FCF798
:103C5000E9FF0C2002F0D6F90120FCF7D7FF0A207B
:103C600002F0D0F9E620FCF7D1FF2F20FCF7DAFFB5
:103C7000FF20FCF7D7FFFF20FCF7D4FFB020FCF7B4
:103C8000C5FF2020FCF7CEFF0020FCF7CBFF032070
:103C9000FCF7C8FF40F21F30FCF7C4FF0120FCF71F
:103CA000C1FF40F2DF10FCF7BDFF0020FCF7BAFFB8
:103CB000B420FCF7ABFF05E085E051E10EE2C4E281
:103CC0009AE3FDE30420FCF7ADFF40F21F40FCF750
:103CD000A9FF0020FCF7A6FF2E20FCF7A3FF002081
:103CE000FCF7A0FF0020FCF79DFF0020FCF79AFFE7
:103CF0000020FCF797FF03E0FEE3FEE3FEE3FEE3B4
:103D0000B620FCF783FF0220FCF78CFF4FF4037012
:103D1000FCF788FF0020FCF785FF1720FCF782FFE7
:103D20001520FCF77FFF0020FCF77CFF0020FCF74C
:103D300079FFF020FCF76AFF0320FCF773FF2920CE
:103D4000FCF764FFD020FCF761FF0020FCF76AFF5E
:103D5000BE20FCF75BFF0520FCF764FFFE20FCF7AC
:103D600061FF0120FCF75EFF0020FCF75BFF0020F5
:103D7000FCF758FF0020FCF755FFB820FCF746FF82
:103D80000320FCF74FFF0120FCF74CFFBA20FCF7A3
:103D90003DFF0120FCF746FF6420FDF770FA00208C
:103DA000FDF790FAFE490120C1F8BC025046FDF72C
:103DB00015FCB9F80220B9F80010FAA030F0C4F9E7
:103DC00021B0BDE8F08F47F6F001E520FCF740FF99
:103DD00021460120FCF73CFF59460220FCF738FF42
:103DE00041F230010320FCF733FF00210420FCF7EF
:103DF0002FFF40F202210820FCF72AFF00210920B2
:103E0000FCF726FF00210A20FCF722FF00210C20EE
:103E1000FCF71EFF00210D20FCF71AFF00210F20E8
:103E2000FCF716FF00211020FCF712FF07211120DC
:103E3000FCF70EFF00211220FCF70AFF00211320DF
:103E4000FCF706FF00210720FCF702FF41F290611A
:103E50001020FCF7FDFE40F227211120FCF7F8FEB0
:103E60009D211220FCF7F4FE4FF4C8511320FCF7FB
:103E7000EFFE25212920FCF7EBFE0D212B20FCF77E
:103E8000E7FE07213020FCF7E3FE40F2033131204A
:103E9000FCF7DEFE03213220FCF7DAFE40F20621B9
:103EA0003520FCF7D5FE08213620FCF7D1FE40F284
:103EB00006413720FCF7CCFE4FF441713820FCF767
:103EC000C7FE07213920FCF7C3FE40F202613C2007
:103ED000FCF7BEFE08213D20FCF7BAFE0021502071
:103EE000FCF7B6FEEF215120FCF7B2FE0021522074
:103EF000FCF7AEFE40F23F115320FCF7A9FE31461D
:103F00006020FCF7A5FE01216120FCF7A1FE002145
:103F10006A20FCF79DFE00218020FCF799FE00211D
:103F20008120FCF795FE00218220FCF791FE002104
:103F30008320FCF78DFE00218420FCF789FE002100
:103F40008520FCF785FE10219020FCF781FE4FF4C0
:103F5000C0619220FCF77CFE40F233110720FCE3A5
:103F600041F28F01EC20FCF773FE41F23421EF2087
:103F7000FCF76EFE21460120FCF76AFE594602203E
:103F8000FCF766FE41F230010320FCF761FE0021E0
:103F90000420FCF75DFE40F202210820FCF758FEE9
:103FA00000210920FCF754FE00210A20FCF750FEF6
:103FB00001210C20FCF74CFE00210D20FCF748FEEF
:103FC00000210F20FCF744FE00211020FCF740FEEA
:103FD00007211120FCF73CFE00211220FCF738FEDF
:103FE00000211320FCF734FE01210720FCF730FEEE
:103FF000322002F007F841F290411020FCF728FE31
:1040000040F227211120FCF723FE322001F0FAFFB5
:104010008A211220FCF71CFE322001F0F3FF4FF43E
:10402000D0511320FCF714FE06212920FCF710FEC6
:104030000D212B20FCF70CFE322001F0E3FF0021C4
:104040002020FCF705FE00212120FCF701FE322094
:1040500001F0D8FF00213020FCF7FAFD40F20461A6
:104060003120FCF7F5FD40F205313220FCF7F0FD80
:1040700000213520FCF7ECFD40F609413620FCF725
:10408000E7FD4FF401713720FCF7E2FD40F201310A
:104090003820FCF7DDFD29463920FCF7D9FD002149
:1040A0003C20FCF7D5FD40F60A213D20FCF7D0FD71
:1040B000322001F0A7FF00215020FCF7C9FDEF21BD
:1040C0005120FCF7C5FD00215220FCF7C1FD40F254
:1040D0003F115320FCF7BCFD314662E10021084648
:1040E000FCF7B6FD21460120FCF7B2FD594602203F
:1040F000FCF7AEFD41F230010320FCF7A9FD0021E1
:104100000420FCF7A5FD40F202210820FCF7A0FDE9
:1041100000210920FCF79CFD00210A20FCF798FDF6
:1041200001210C20FCF794FD00210D20FCF790FDEF
:1041300000210F20FCF78CFD322001F063FF40F2DC
:1041400001110720FCF784FD322001F05BFF4FF4E2
:1041500086511020FCF77CFD07211120FCF778FD2B
:1041600031461220FCF774FD4FF430611320FCF748
:104170006FFD00212920FCF76BFD44F210012B207C
:10418000FCF766FD00215020FCF762FDEF21512075
:10419000FCF75EFD00215220FCF75AFD10E0000004
:1041A000008040426C63642077696474683D2564D4
:1041B000206865696768743D25640D0A0000000089
:1041C00040F23F115320FCF743FD41466020FCF7CD
:1041D0003FFD01216120FCF73BFD00216A20FCF737
:1041E00037FD00218020FCF733FD00218120FCF702
:1041F0002FFD00218220FCF72BFD00218320FCF7FE
:1042000027FD00218420FCF723FD00218520FCF7F9
:104210001FFD10219020FCF71BFD00219220FCF7D0
:1042200017FD01219320FCF713FD31469520FCF783
:104230000FFD00219720FCF70BFD00219820FCF7D3
:1042400007FD40F27311072084E341F21401E720D7
:10425000FCF7FEFC21460120FCF7FAFC4FF400714C
:104260000220FCF7F5FC41F238010320FCF7F0FCDA
:1042700040F202210820FCF7EBFC00210920FCF7AA
:10428000E7FC00210A20FCF7E3FC00210C20FCF7EE
:10429000DFFC00210D20FCF7DBFC00210F20FCF7E8
:1042A000D7FC00211020FCF7D3FC07211120FCF7DC
:1042B000CFFC00211220FCF7CBFC00211320FCF7DF
:1042C000C7FCC82001F09EFE41F290611020FCF76F
:1042D000BFFC40F227211120FCF7BAFC322001F08C
:1042E00091FE0C211220FCF7B3FC322001F08AFE73
:1042F0004FF400611320FCF7ABFC11212920FCF7DF
:10430000A7FC0B212B20FCF7A3FC322001F07AFE46
:1043100000212020FCF79CFC40F23F13194621208D
:10432000FCF796FC00213020FCF792FC4FF48374DC
:1043300021463120FCF78CFC00213220FCF788FC60
:104340004FF401713520FCF783FC41F20A613620FD
:10435000FCF77EFC29463720FCF77AFC2146382002
:10436000FCF776FC29463920FCF772FC40F202414A
:104370003C20FCF76DFC40F60F413D20FCF768FC4B
:1043800000215020FCF764FCEF215120FCF760FC79
:1043900000215220FCF75CFC19465320FCF758FC26
:1043A00041466020FCF754FC01216120FCF750FCE1
:1043B00000216A20FCF74CFC00218020FCF748FC1F
:1043C00000218120FCF744FC00218220FCF740FC06
:1043D00000218320FCF73CFC00218420FCF738FC02
:1043E00000218520FCF734FC10219020FCF730FCE4
:1043F0004FF4C0619220FDE321460120FCF728FC28
:1044000059460220FCF724FC41F230010320FCF75E
:104410001FFC00210420FCF71BFC40F207210820B0
:10442000FCF716FC00210920FCF712FC00210A20F1
:10443000FCF70EFC00210C20FCF70AFC00210D20EB
:10444000FCF706FC00210F20FCF702FC142001F011
:10445000D9FD41F2B0611020FCF7FAFB01211120D7
:10446000FCF7F6FB01211720FCF7F2FB4FF49C71DF
:104470001220FCF7EDFB4FF400611320FCF7E8FB82
:1044800009212920FCF7E4FB09212A20FCF7E0FBA5
:104490000021A420FCF7DCFB00215020FCF7D8FB16
:1044A000EF215120FCF7D4FB00215220FCF7D0FB78
:1044B00040F23F115320FCF7CBFB4146602000E067
:1044C0003DE0FCF7C5FB01216120FCF7C1FB0021A9
:1044D0006A20FCF7BDFB00218020FCF7B9FB00211E
:1044E0008120FCF7B5FB00218220FCF7B1FB002105
:1044F0008320FCF7ADFB03E030E12CE2F3E2A9E31B
:1045000000218420FCF7A4FB00218520FCF7A0FB00
:1045100013219020FCF79CFB00219220FCF798FBD4
:1045200003219320FCF794FB31469520FCF790FB88
:1045300040F273110720FCF78BFB322009E10021C8
:104540000720FCF785FB322001F05CFD4FF48E71F3
:104550001220FCF77DFB0121A420FCF779FB0F2141
:104560000820FCF775FB08210A20FCF771FB0821E5
:104570000D20FCF76DFB2B4629463020FCF768FB2D
:1045800007213120FCF764FB40F203613220FCF785
:104590005FFB5D4659463320FCF75AFB40F202218F
:1045A0003420FCF755FB02213520FCF751FB41F686
:1045B0000F713620FCF74CFB19463720FCF748FBFF
:1045C00000213820FCF744FB00213920FCF740FB98
:1045D00019463A20FCF73CFB00213B20FCF738FB56
:1045E00007213C20FCF734FB00213D20FCF730FB89
:1045F000322001F007FD01210720FCF729FB0121F2
:104600001720FCF725FB322001F0FCFC4FF4BD51D4
:104610001020FCF71DFB40F217211120FCF718FBBE
:104620004FF48F711220FCF713FB4FF470611320CD
:10463000FCF70EFB00212A20FCF70AFB0A212920A7
:10464000FCF706FB4FF49F711220FCF701FB0021E1
:104650005020FCF7FDFAEF215120FCF7F9FA002178
:104660005220FCF7F5FA40F23F115320FCF7F0FA24
:1046700041466020FCF7ECFA01216120FCF7E8FAE2
:1046800000216A20FCF7E4FA00218020FCF7E0FA20
:1046900000218120FCF7DCFA00218220FCF7D8FA07
:1046A00000218320FCF7D4FA00218420FCF7D0FA03
:1046B00000218520FCF7CCFA13219020FCF7C8FAE2
:1046C00031469220FCF7C4FA05219320FCF7C0FA8A
:1046D00000219520FCF7BCFA00219720FCF7B8FADE
:1046E00000219820FCF7B4FA21460120FCF7B0FA2B
:1046F00029460220FCF7ACFA41F238010320FCF70E
:10470000A7FA00210420FCF7A3FA00210C20FCF7F3
:104710009FFA00210F20FCF79BFA00212020FCF7D4
:1047200097FA00212120FCF793FA21210720FCF7BA
:104730008FFA142001F066FC61210720FCF788FA4B
:10474000142001F05FFC40F273110720FCF780FA9F
:10475000142001F057FCFFF722BBF7E000210846C8
:10476000FCF776FA00210846FCF772FA00210846A9
:10477000FCF76EFA00210846FCF76AFA0121A42032
:10478000FCF766FA142001F03DFC454641466020E6
:10479000FCF75EFA40F2022631460820FCF758FA90
:1047A0004FF405713020FCF753FA43F215713120B4
:1047B000FCF74EFA40F204613220FCF749FA40F669
:1047C00016613320FCF744FA42F211213420FCF741
:1047D0003FFA4FF4A8513520FCF73AFA48F2075156
:1047E0003620FCF735FA41F207413720FCF730FA62
:1047F00041F203413820FCF72BFA20213920FCF745
:1048000027FA1A219020FCF723FA00211020FCF748
:104810001FFA07211120FCF71BFA00211220FCF7D8
:1048200017FA00211320FCF713FA142001F0EAFB19
:104830004FF4E6611020FCF70BFA40F2371111201B
:10484000FCF706FA142001F0DDFB4FF4DC711220B6
:10485000FCF7FEF9142001F0D5FB4FF47061132032
:10486000FCF7F6F980212A20FCF7F2F948212920EB
:10487000FCF7EEF9142001F0C5FB21460120FCF7FE
:10488000E7F959460220FCF7E3F941F23801032029
:10489000FCF7DEF931460820FCF7DAF900210A209E
:1048A000FCF7D6F900210C20FCF7D2F900210D20ED
:1048B000FCF7CEF930210E20FCF7CAF90021502078
:1048C000FCF7C6F9EF215120FCF7C2F90021522074
:1048D000FCF7BEF940F23F115320FCF7B9F9294625
:1048E0006020FCF7B5F901216120FCF7B1F9002146
:1048F0006A20FCF7ADF911219020FCF7A9F94FF4DB
:10490000C0619220FCF7A4F940F202419320FCF729
:104910009FF902219420FCF79BF9142001F072FB0F
:1049200001210720FCF794F9142001F06BFB6121B1
:104930000720FCF78DF940F273110720FCF788F986
:1049400000212020FCF784F900212120FCF780F9C8
:10495000222100207BE100210846FCF779F90021A3
:104960000846FCF775F9142001F04CFB00210846BD
:10497000FCF76EF900210846FCF76AF900210846A9
:10498000FCF766F900210846FCF762F90121A42032
:10499000FCF75EF9142001F035FB41466020FCF77E
:1049A00057F940F606010820FCF752F940F203736C
:1049B00019463020FCF74CF901213120FCF748F969
:1049C00004213220FCF744F94FF481713320FCF7C5
:1049D0003FF931463420FCF73BF940F20311352012
:1049E000FCF736F91F213620FCF732F9194637203B
:1049F000FCF72EF901213820FCF72AF9042139208F
:104A0000FCF726F915219020FCF722F94FF482617A
:104A10001020FCF71DF940F247211120FCF718F98E
:104A20004FF4DE711220FCF713F94FF4606113208C
:104A3000FCF70EF9782001F0E5FA21460120FCF799
:104A400007F94FF400710220FCF702F941F230013E
:104A50000320FCF7FDF808210A20FCF7F9F80021F3
:104A60000C20FCF7F5F820210E20FCF7F1F80021CE
:104A70000F20FCF7EDF800212020FCF7E9F80021D9
:104A80002120FCF7E5F83D212A20FCF7E1F814206D
:104A900001F0B8FA2D212920FCF7DAF80021502086
:104AA000FCF7D6F84DF2EF015120FCF7D1F80021C8
:104AB0005220FCF7CDF840F23F115320FCF7C8F824
:104AC00000216120FCF7C4F800216A20FCF7C0F83F
:104AD00031469220FCF7BCF805219320FCF7B8F88A
:104AE0002146FFF7B0BB01210020FCF7B1F80A20F6
:104AF00001F088FA41F228611020FCF7A9F80E2194
:104B00001220FCF7A5F840F639211320FCF7A0F895
:104B10000A2001F077FA40211120FCF799F8502182
:104B20001520FCF795F80A2001F06CFA1E211220DE
:104B3000FCF78EF80A2001F065FA4FF4B15110200D
:104B4000FCF786F842F639211320FCF781F80A2099
:104B500001F058FA21460120FCF77AF8314602208C
:104B6000FCF776F841F238010320FCF771F840F2C7
:104B700002210820FCF76CF808210A20FCF768F8ED
:104B800000213020FCF764F840F202413120FCF7AC
:104B90005FF84FF483713220FCF75AF840F203516A
:104BA0003320FCF755F84FF482713420FCF750F8AD
:104BB00040F201313520FCF74BF829463620FCF74E
:104BC00047F840F205313720FCF742F84FF4027104
:104BD0003820FCF73DF840F60B713920FCF738F827
:104BE00002214120FCF734F841466020FCF730F800
:104BF000012100E0D0E06120FCF72AF84FF40471B5
:104C00009020FCF725F84FF485719220FCF720F8EE
:104C100004219320FCF71CF82146A020FCF718F88B
:104C200001210720FCF714F821210720FCF710F8D8
:104C300023210720FCF70CF833210720FCF708F8A4
:104C400040F233110720FCF703F80021A020FBF706
:104C5000FFFF80E530211520FBF7FAFF10219A2095
:104C6000FBF7F6FF20211120FBF7F2FF43F228416A
:104C70001020FBF7EDFF02211220FBF7E9FF41F2C4
:104C800038011320FBF7E4FF282001F0BBF91221C3
:104C90000846FBF7DDFF282001F0B4F943F220417C
:104CA0001020FBF7D5FF43F238011320FBF7D0FFAC
:104CB000462001F0A7F900213020FBF7C9FF40F2A0
:104CC00002413120FBF7C4FF40F207313220FBF7ED
:104CD000BFFF4FF441713320FBF7BAFF04213420AA
:104CE000FBF7B6FF40F201413520FBF7B1FF294643
:104CF0003620FBF7ADFF40F205313720FBF7A8FF68
:104D00004FF4C26319463820FBF7A2FF1946392039
:104D1000FBF79EFF21460120FBF79AFF3146022058
:104D2000FBF796FF41F230010320FBF791FF40F6BD
:104D300008010820FBF78CFF08210A20FBF788FFF9
:104D400041466020FBF784FF01216120FBF780FFD3
:104D50004FF49F719020FBF77BFF21469220FBF7D9
:104D600077FF21469320FBF773FF4FF44051A020BB
:104D7000FBF76EFF1021A320FBF76AFF012107203C
:104D8000FBF766FF21210720FBF762FF23210720A5
:104D9000FBF75EFF33210720FBF75AFF40F2331188
:104DA0009FE62DE9F843FB4D1F468046AB88089EE1
:104DB000A3F5D040043802D1A879012807D0A2EB8E
:104DC0000800401C85B20C464FF0D84929E02B88DA
:104DD0000846991A0024AC713A462A24A3EB08032A
:104DE0006C812B27491E5B1EAF8189B29BB2009656
:104DF000FFF7D7FF0120A8716F81AC81BDE8F88370
:104E000021464046FBF74CFFFBF731FF00204946A7
:104E100003E0A1F88060401C80B2A842F9D3641C72
:104E2000A4B2BC42ECD9E9E72DE9F0478246A2EBF7
:104E30000A00401C0E4685B2981B401C87B2002415
:104E40004FF0D849DDF8208015E0301981B2504686
:104E5000FBF726FFFBF70BFF0020494607E004FBAA
:104E6000050338F81320A1F88020401C80B2A84226
:104E7000F5D3641CA4B2BC42E7D3BDE8F0872DE9AA
:104E8000FE4F0026A2EB000882465F1A701E3546D0
:104E90008946B8F1000F02DD4FF0010102E003D1B5
:104EA0004FF00001019102E0C8F100080190002FCD
:104EB00002DD4FF0010002E003D14FF0000000904E
:104EC00002E0C7F1000700904046B84501DD044606
:104ED00000E03C46601C4FF0000B029015E01FFA0A
:104EE00089F11FFA8AF0FCF739F946443D44A6429D
:104EF00002DD0199361B8A44A54202DD00992D1B73
:104F000089440BF101001FFA80FB02998B45E6DD15
:104F1000BDE8FE8FF0B51C4615460E4607460B460B
:104F2000FFF7ADFF3A46234631461046FFF7A7FF8D
:104F300023462A4619463846FFF7A1FF2A4623464C
:104F40003146BDE8F040104699E72DE9FC4F804618
:104F50000024154603200F46A0EB450649E0781BC8
:104F600081B208EB040A01901FFA8AF0FCF7F6F808
:104F7000381B81B208EB050900901FFA89F0FCF795
:104F8000EDF807EB040B1FFA8BF11FFA89F0FCF721
:104F9000E5F807EB05091FFA89F11FFA8AF0FCF71B
:104FA000DDF8A8EB040A1FFA89F11FFA8AF0FCF772
:104FB000D5F8A8EB05091FFA8BF11FFA89F0FCF769
:104FC000CDF8019881B21FFA8AF0FCF7C7F8009873
:104FD00081B21FFA89F0FCF7C1F8641C002E03DAD5
:104FE00006EB8406B61D04E0601B06EB80066D1E12
:104FF0000A36AC42B3DDBDE8FC8F2DE9F84F82469E
:105000001F460C468B46580700D0012000EBD70006
:10501000790810FB01F0203AC0B202F0FF09002627
:10502000009041E00C2F10D0102F12D0182F3ED13D
:10503000594909EBC90001EB80004FF00008855D7C
:1050400028060AD5554802880BE009EB4900544967
:10505000F1E7544901EB0910EFE70A9828B94F48E6
:10506000428821465046FCF785F86806050E4948F7
:10507000641CA4B24088A04219D9A4EB0B00B8422A
:1050800009D10AF101001FFA80FA42485C46018802
:1050900051450CD906E008F1010000F0FF08B8F115
:1050A000080FCDD3761CF6B200988642BAD3BDE87D
:1050B000F88F0346012000E05843491EC9B2FBD2D5
:1050C00070472DE9FF4F81B00027DDF838B01D464D
:1050D000924680463C46B9464FEA5B0627E0281BCD
:1050E000401EC1B20A20FFF7E4FFBAFBF0F00A212C
:1050F000B0FBF1F201FB120027B9691E8C4201DA04
:1051000048B101273030C2B206FB048080B25B4652
:10511000CDF8009006E006FB048080B25B462022BA
:10512000CDF800900299FFF768FF641CE4B2AC422E
:10513000D5D305B0BDE8F08F2DE9FF4F81B0804693
:10514000DDF83CA00E984FF000091F4693464C46F0
:105150000AF00105460835E0381B401EC1B20A209E
:10516000FFF7A7FFBBFBF0F00A21B0FBF1F201FB58
:105170001200B9F1000F05D1791E8C4202DA98B104
:105180004FF001093030C2B206FB048080B20095B6
:105190000E9B12E0A0040020446603088400002057
:1051A000E05B0308546003085FEA0A6006FB0480C2
:1051B0000E9B80B2009508D530220299FFF71DFFA3
:1051C000641CE4B2BC42C7D3B3E72022F5E72DE963
:1051D000F84F044600F0FF0810190D46DDE90A7685
:1051E0001FFA80FA58191FFA80F94FF0000B11E0EE
:1051F000544502D3E819444685B24D450FD23B468B
:1052000029462046CDF800B0FFF7F7FE04EB570023
:1052100084B2761C3278A2F120005E28E8D946E7F5
:1052200001B4BDF8000001B0FBF7FCBC121A5B1A18
:1052300000B5521C5B1C92B29BB2FCF7DAF85DF829
:1052400004EBFBF714BD2DE9F8471746DDE909A586
:105250004A199946521E93B24219521E92B2FFF752
:10526000E5FF4648002400EBC718012705FB05F0C1
:10527000C11700EB517C15E0202D01D118F8046016
:10528000002207FA02F0304201D0484600E05046C2
:10529000ADF80000BDF80000FBF7C4FC521C082A62
:1052A000EFD3641CB4EBEC0FE6D3BDE8F88770B520
:1052B0000546202910D1324E002428787F2801D9B4
:1052C000022200E0012256F8240029462FF08DF832
:1052D00028B1641C1C2CF0D34FF0FF3070BD204669
:1052E00070BD2DE9FC479846DDE90AA617468946B8
:1052F0000546002420E038193146FFF7D8FF002882
:1053000002DA641CE4B217E0B2B21FFA8AF1CDE906
:10531000001282B21FFA88F31FFA89F1A8B2FFF7D0
:1053200092FF385D7F2803D9A41CE4B2354403E022
:10533000641CE4B205EB5605385D0028DBD1BDE8FE
:10534000FC87F8B51F461546CA19521E93B242197A
:10535000521E002492B2069EFFF768FF7D4308E0CC
:1053600030190088ADF80000BDF80000FBF75AFCCA
:10537000A41CB4EB450FF3D3F8BD0000A0730308E1
:10538000140000202DE9F0470024FF4EFF4F054692
:10539000A0464FF00109280601D5484600E04046E6
:1053A000C6F8AC026806050EC7F88082012000F03E
:1053B00010FEC7F88092641CE4B2082CEBD3BDE861
:1053C000F0872DE9F0470025F04F2C462E46C7F810
:1053D0008052ED49C1F8AC52DFF8B4A3CAF8B45218
:1053E00007F52077FFF7CEFF062000F0F2FD3E60C4
:1053F000012000F0EEFD4FF00108C7F800804046A4
:1054000000F0E7FD3E60B14646464FF6FF78A7F54F
:10541000207708EA4404C7F88092012000F0D9FD03
:10542000C7F88062D7F8080208B1641CA4B26D1CEA
:10543000EDB2102DEDD32009CAF8B462BFE7FEB576
:10544000064600246D463046FFF7BBFF25F81400E2
:10545000641CA4B2052CF6D300214C1CA0B20BE0B6
:1054600035F8113035F81020934203D925F8112072
:1054700025F81030401C80B20528F1D3A1B20429D0
:10548000EBD30021012035F81020401C114480B2DC
:1054900089B20428F7D30320B1FBF0F0FEBD2DE95B
:1054A000F041BC4F06460D463878FFF7C8FF04466A
:1054B0007878FFF7C4FF348028800120BDE8F081B0
:1054C00070B586B00C460546694604A8FFF7E7FFAD
:1054D00000282FD001A903A8FFF7E1FF002829D059
:1054E000BDF80C30BDF81020934203D803F1320010
:1054F000824205D39A421FD802F1320083421BD266
:10550000BDF80410BDF80000814203D801F1320655
:10551000B04204D388420FD8323081420CD2D01826
:1055200040082880BDF80000BDF804100844400879
:105530002080012006B070BD0020FBE72DE9F0417E
:10554000044695480D460B46028004F10D0082B2D8
:10555000193880B2FFF793FC05F10D0083B21938BA
:1055600081B222461046FFF78AFC6E1C04F1010846
:10557000B1B21FFA88F0FBF7F1FDB1B2661EB0B20E
:10558000FBF7ECFD6F1EB9B21FFA88F0FBF7E6FDE2
:10559000B9B2B0B2FBF7E2FD29462046BDE8F041C2
:1055A0000622FFF7D2BC70B506467B480C46028047
:1055B0003046FBF7D3FD751CA8B22146FBF7CEFDA4
:1055C000641CA1B23046FBF7C9FDA1B2A8B2BDE888
:1055D0007040FBF7C3BD6D4910B5D1F804126D4C96
:1055E000241D41B194F82000010647D520F0800029
:1055F00084F8200049E00200664800F1040000F150
:10560000160100F10C0002D0FFF75AFF2AE0FFF765
:1056100057FF38B3B4F92C0094ED091A00EE100AC4
:10562000A08900EE900AB8EEC00AF8EE600A01EE1A
:10563000200ABCEEC00A10EE100AA081B4F92E00B8
:1056400094ED0A1A00EE100AE08A00EE900AB8EE15
:10565000C00AF8EE600A01EE200ABCEEC00A10EEA5
:10566000100AE08294F8200000060ED4C02084F8CE
:105670002000A089A082E08AE08306E00020A082CA
:10568000E0834FF6FF70A081E08294F8200000F0E4
:10569000800010BD70B53F4C04222DED028B241DFF
:1056A0009FED3E8A94ED090A82B0282020EE080A78
:1056B000BDEEC00A10EE101AFBF738F994ED0A0A95
:1056C00004222C2020EE080ABDEEC00A10EE101AAB
:1056D000FBF72CF9B4F92C1002223020FBF726F945
:1056E000B4F92E1002223220FBF720F994F8301082
:1056F0003420FBF7FCF80A213520FBF7F8F8A06A04
:1057000030F0F6F905460E46606A30F0F1F941ECEA
:10571000100BCDE9005653EC102B21A02EF014FDF8
:10572000B4F92E20B4F92C1002B025A0BDEC028BE8
:10573000BDE870402EF008BD10B535202DED028B70
:10574000FBF7B4F80A2803D00020BDEC028B10BD93
:1057500004212820FBF7FFF800EE100A9FED0F8AC6
:105760000C4CB8EEC00A241D04212C20C0EE080AFF
:10577000C4ED090AFBF7EFF800EE100AB8EEC00A14
:10578000C0EE080A2EE00000008042420080404245
:1057900000004142880000208400002020BCBE4C54
:1057A00074705F6465762E786661633D256620744B
:1057B000705F6465762E796661633D25660D0A002B
:1057C00074705F6465762E786F66663D2568642028
:1057D00074705F6465762E796F66663D2568640D2A
:1057E0000A000000C4ED0A0A02213020FBF7B3F8DA
:1057F000A08502213220FBF7AEF8E0853420FBF7CC
:1058000055F89023211F84F83000D02210B10B707E
:105810004A7001E00A704B70012096E72DE9FF4FB6
:1058200083B00746DDE910A993460E464FF4784051
:10583000FE49DDF8508010240880FDA0CDE900402D
:10584000FC4DA02128206B882A88FFF7C0FCFAA015
:10585000CDE900406B882A88A0217820FFF7B7FCAB
:10586000F6A0CDE900406B882A88B4212820FFF7F4
:10587000AEFCF3A0CDE900406B882A88B4217820E3
:10588000FFF7A5FCEFA0CDE900406B882A88C8216E
:105890002820FFF79CFCECA0CDE900406B882A880B
:1058A000C8217820FFF793FCE8A0CDE900406B8881
:1058B0002A88DC212820FFF78AFCE5A0CDE90040FA
:1058C0006B882A88DC217820FFF781FCE1A0CDE9F4
:1058D00000406B882A88F0212820FFF778FC0423F9
:1058E0003A46A02140200094FFF7EBFB0423324608
:1058F000A02190200094FFF7E4FB04235A46B42132
:1059000040200094FFF7DDFB04230094B421902095
:10591000069AFFF7D6FB04235246C8214020009484
:10592000FFF7CFFB04234A46C82190200094FFF7DD
:10593000C8FB04230094DC214020129AFFF7C1FB2E
:1059400004230094DC219020139AFFF7BAFB032371
:105950004246F02160200094FFF7B3FB07B0BDE89A
:10596000F08F2DE9F04FB14E1F202DED0C8B89B03B
:105970004FF6FF77002425463080B8480780384628
:10598000FBF72CFE4FF47848A6F800803846FBF76A
:1059900025FEB3480027378001684FF0100ACDE993
:1059A00000A128216423A0220846FFF710FC14213F
:1059B00042460846FFF7C2FDAA4880F820709FEDD6
:1059C000AA0A80ED090A9FEDA9CB9FEDAADB9FED06
:1059D000ABBB984E80464FF0900BA0F10409D8F86D
:1059E000041047460120884797F820000121B1EBB9
:1059F000901F46D120F0400087F8200005A8BA8902
:105A000020F8242000EB8400641C0025F98AE4B20D
:105A1000B8464180012C06D0022C11D0032C1ED098
:105A2000042C2ED13BE014214FF6FF720846FFF7FD
:105A300085FD30884FF47842143880B214211EE07E
:105A400030884FF6FF72143880B21421FFF776FDCC
:105A500070884FF47842143881B214200FE07088B7
:105A60004FF6FF72143881B21420FFF767FD70887B
:105A70004FF47842143881B23088143880B2FFF77E
:105A80005DFD0A2000F0BEFA6D1CADB2B5F57A7F5F
:105A9000A5D9FFF751FE09B0BDEC0C8B5FE7BDF84F
:105AA0001400BDF81810411A00D54942BDF816007F
:105AB000BDF81A20801A00D54042494340430844AB
:105AC0002FF0C7FD41EC100B2FF036FD51EC100B01
:105AD0002FF092FD84B2BDF81C00BDF82010411AD1
